:100000000C9434020C9451020C9451020C94510241
:100010000C9451020C9451020C9451020C94510214
:100020000C9451020C9451020C94DB250C94AF26D5
:100030000C947F1F0C9451020C9451020C945102A9
:100040000C9451020C9451020C9451020C945102E4
:100050000C9451020C94D61F0C9451020C94510232
:100060000C9451020C9451020C9451020C945102C4
:100070000C9451020C9451020C9451020C945102B4
:100080000C9451020C9451020C9451020C945102A4
:100090000C9451020C9451020C9451020C94510294
:1000A0000C9451020C9451020C9451022900140832
:1000B0001A081708150809084200430044004500C3
:1000C000190833021E001F00200021002200230017
:1000D000240000002500260027002D002E003500FA
:1000E0002A5D2B5D00004800060800002A0014006D
:1000F0001A000800150017001C00000018000C0072
:10010000120013002C5D2D5DE6002A0400004A0059
:100110002B000000E00004001600070009000A00A0
:100120000B0000000D000E000F0033003400000033
:100130002800E70000004D0028000151E1001D00EB
:100140001B00060019000500110000001000360019
:10015000370000003800E50000000151DF5C4B0073
:100160007600E000E200E3002C00E700E600E70094
:1001700065004E0069006A006B006C006D006E0047
:100180006F007000710072006800320059005A0060
:100190005B005C005D005E005F00000060006100CD
:1001A00062005600570067003100640000007300D1
:1001B000770000007E004B0052004E00900091003E
:1001C000920000009300940095004B002F00300037
:1001D00049007D0000007C007500000074005000A4
:1001E00051004F008700880050000000510052006D
:1001F0004F004E005500000058007A0000007B00C0
:100200004700010001004A009C004D0089008A005F
:100210008B0000008C00850063000000540001008A
:1002200000000100B200AF00530001000100010016
:10023000F200010001000100B100B3000000000065
:10024000000000002A2B2800000000000000000031
:100250000000000000000029000000002C1E3420D7
:10026000212224342627252E362D3738271E1F20FD
:100270002122232425263333362E37381F04050642
:100280000708090A0B0C0D0E0F1011121314151686
:100290001718191A1B1C1D2F3130232D3504050684
:1002A0000708090A0B0C0D0E0F1011121314151666
:1002B0001718191A1B1C1D2F3130354C0000000077
:1002C000000000000000000000000000000000002E
:1002D000000000000000000000000000000000001E
:1002E0007E0F00D4FFFFFFC700000078200341000D
:1002F0003600320030004E002D003800380020005B
:100300005200650076002E0020004100000010031E
:100310004B00650079006D00610063007300000010
:100320000403090409023B00020100A0FA090400C9
:100330000001030101000921110100012240000711
:1003400005810308000A09040100010300000009F7
:10035000211101000122B6000705820320000A12C4
:1003600001100100000008EDFE0000010001020084
:100370000105010902A10185020901A10005091970
:10038000012908150025019508750181020501095B
:100390003009311581257F950275088106093815C8
:1003A00081257F950175088106050C0A38021581A3
:1003B000257F950175088106C0C005010980A1014E
:1003C000850319012AB700150126B700950175109C
:1003D0008100C0050C0901A101850419012AA002B0
:1003E000150126A002950175108100C005010906BE
:1003F000A1018505050719E029E7150025019508E4
:10040000750181020507190029EF1500250195F0F6
:1004100075018102050819012905950575019102EB
:10042000950175039101C005010906A10105071990
:10043000E029E715002501950875018102950175F0
:100440000881010507190029FF150026FF00950600
:1004500075088100050819012905950575019102A6
:10046000950175039101C00011241FBECFEFDAE0A2
:10047000DEBFCDBF11E0A0E0B1E0E0EBF2E502C0ED
:1004800005900D92AA39B107D9F726E0AAE9B1E0A3
:1004900001C01D92A630B207E1F70E9415230C940B
:1004A000F3280C9400000F931F93CF93DF93EC017C
:1004B0008B010E941803882371F0CB329DE5D90788
:1004C00009F467C068F4C333F2E0DF0751F1CA32C0
:1004D000DD4509F448C0DF91CF911F910F91089538
:1004E000CC32EDE5DE0709F471C0CD32DD4599F778
:1004F0000E94141DC82FF8018281882321F18C2FBE
:10050000827209F48BC082E20E941D1D0E94561D5A
:1005100080E30E94EF1C0E94561D8C2F0E94241D18
:1005200047C00E94141DC82FF8018281882359F00A
:100530008C2F827261F083E30E94EF1C0E94561D93
:1005400083E30E94F61C0E94561D80E0C4CF82E027
:100550000E94171D83E30E94EF1C0E94561D8C2FE2
:100560000E94241DEDCF0E94141DF8019281992351
:1005700051F3827239F08FE20E94EF1C0E94561DE7
:100580008FE2DFCF81E30E94EF1C0E94561D81E3C2
:10059000D8CF0E94141DC82FF8018281882399F2B8
:1005A0008C2F827239F080E30E94EF1C0E94561D4E
:1005B00080E3C7CF82E00E94171D81E30E94EF1CF9
:1005C0000E94561D8C2F0E94241DE1CF0E94141DF5
:1005D000C82FF8018281882309F4B5CF8C2F82724D
:1005E00071F082E20E941D1D0E94561D8FE20E9442
:1005F000EF1C0E94561D8C2F0E94241DC1CF86E245
:100600000E94EF1C82E00E94171D0E94561D86E288
:100610000E94F61C8C2F0E94241D95CF87E20E9419
:10062000EF1C82E00E94171D0E94561D87E2F0CF4A
:1006300081E008950895CF93DF939C013A952115A9
:100640003F4168F5EC01CC27D170DC01AA27B270DC
:10065000AC01442754709C012227387094FF11C0CC
:1006600080E1CD2B09F480E0AB2B09F08062452BB3
:1006700009F08064232B09F08068FB01DF91CF91A2
:10068000099481E0CD2B09F480E0AB2B09F0826066
:10069000452B09F08460232B81F38860EECFDF9136
:1006A000CF910895CF93DF93EC01805E9109089775
:1006B00020F069EE77E1209711F463E975E1CE014E
:1006C0000E941B038C2FDF91CF910C94F214CF93D7
:1006D000DF93EC010E944515CE01805E91090897D9
:1006E00020F060EF77E1209711F46AE975E1CE011F
:1006F000DF91CF910C941B03CF93DF93EC010E9409
:100700005203CE01DF91CF910C94670381E00895ED
:1007100008950C9488031F93CF93DF9300D000D0EB
:100720000F92CDB7DEB749835A836B833091FA04B9
:1007300089819A8131111DC06623B9F02223A9F065
:100740000E947F1C182F682F89819A810E942B1C80
:1007500069817A81812F0F900F900F900F900F90E9
:10076000DF91CF911F910C94CA040E94571C182F3F
:10077000EFCF0E947F1C69817A81EDCFFC01262F8B
:10078000408151816281738184810C948B03CF936A
:10079000DF93EC0160E00E94BE03BE01DF91CF91C8
:1007A0000C9489030E94BB1D811102C00E94691E26
:1007B0000E943C0C0C94B3060C94B60608950E945B
:1007C0000D180E94DE032FEF84E39CE0215080404F
:1007D0009040E1F700C000000C94FA1F0F931F93A4
:1007E000CF93DF9300D0CDB7DEB78C0161E00E94DC
:1007F000BE039A838983B801CE0101960E945010EE
:10080000811108C080E00F900F90DF91CF911F9170
:100810000F910895B80189819A810E94C30F88239E
:1008200089F3B80189819A810E945302882351F388
:10083000B80189819A810E94D70C882319F3B801E5
:1008400089819A810E94760D8823E1F2B80189811D
:100850009A810E94C80D8823A9F2B80189819A81E2
:100860000E94EB0E882371F2F8018281882349F0FF
:1008700089819A818115FCE59F0739F0803E9C456E
:1008800039F0C8010E948603BECF0E94DF03BACFB1
:100890000E94691EB7CFDF92EF92FF920F931F93D2
:1008A000CF93DF93E82FF0E0E45CFD4FD490282F46
:1008B00026952695269530E0F901E452FD4F0491E6
:1008C000877010E0082E02C0159507950A94E2F78C
:1008D00001701127F901E453FD4FE490F12C082E2B
:1008E00002C0F594E7940A94E2F791E0E922FF242C
:1008F000F901E454FD4FC491D0E002C0D595C795ED
:100900008A95E2F7C170DD270115110519F081EE16
:100910000E94F214E114F10419F086EE0E94F21420
:100920008D2D0E948B15EF2819F086EE0E9445153B
:10093000012B19F081EE0E944515CD2B51F08CE270
:10094000DF91CF911F910F91FF90EF90DF900C946A
:100950008B15DF91CF911F910F91FF90EF90DF905A
:100960000895982F9F709A50963018F0805D0C94DF
:100970004B04895AFCCF08950C94BB0481E0089580
:100980000C94BE04CF93C82F0E94BC048C2FCF912F
:100990000C94C004972F70E02AE0929F600D711DA7
:1009A0001124FB0194E6899FE00DF11D1124EE0F47
:1009B000FF1FE455FF4F859194910895CF93DF93E6
:1009C0000E94CA040E94D805EC01811521E5920716
:1009D00008F042C0811530E5930708F09DC0883EBD
:1009E000910530F5803E910508F092C0883A910556
:1009F00088F4853A910508F084C08130910509F4A6
:100A000087C0009709F484C0049708F081C0D0E043
:100A1000C0E07EC08F3B9105D0F7C85AD0E0CC0F24
:100A2000DD1FC75EDE4F0990D881C02DD46470C031
:100A30008115904250F4C11581E0D80708F068C0D4
:100A4000CD3ED10520F3D06563C0C11590E4D90730
:100A5000F0F2DF70D06A5CC0811525E5920700F5E1
:100A6000811534E5930708F08BC0811543E59407A1
:100A700008F073C0C11582E5D80708F469C0CE013B
:100A80008370992721E030E002C0220F331F8A953E
:100A9000E2F7C695C69580E2C89FE001112454C0D4
:100AA000C11599E5D907A8F4C11528E5D20708F0C2
:100AB0006CC0C11536E5D30708F0A9CF8C2F0E9472
:100AC0006F06C82FD0E0DC2FCC27CC27DF71D06297
:100AD0001FC0C1154AE5D40708F45CC0CE0190568A
:100AE0008115904208F093CF8D2F8F710E946F0671
:100AF00090E0982F882788279F719C012C2BE90173
:100B0000E6CFC55AD0E0C95BDE4FC881D0E0D064E3
:100B1000CE01DF91CF910895E4E096958795EA950F
:100B2000E1F783702C2F26952695237040E2249FB1
:100B300090011124382B8C2F8370C1E0D0E002C0CB
:100B4000CC0FDD1F8A95E2F7C22BD32BDC68E0CFF8
:100B5000DC2FCC27C16FD06ADBCF8370992721E0CF
:100B600030E002C0220F331F8A95E2F7C695C69582
:100B700090E2C99FE0011124C22BD32BDA68C8CFC1
:100B8000D82FCC27C46FD06AC3CFDC2FCC27C06F3F
:100B9000D06ABECF8C2F8F700E946F0634E0D6953E
:100BA000C7953A95E1F7CF709C2FEC01D069B0CF93
:100BB00082389105B1F1B0F48133910509F475C023
:100BC00048F48932910509F469C08A32910509F423
:100BD00073C008958533910509F459C0893391058F
:100BE00001F10895833E9105A9F138F4803E910505
:100BF000F9F0823E910549F10895863E9105A9F1EB
:100C0000873E9105C9F1843E910519F52091F805BB
:100C100021FF1FC08091F70584FD14C087EE90E08E
:100C200008952091F7052370A1F080EE90E00895DB
:100C30002091F70520FD47C03091F80530FF09C02D
:100C400024FF44C090E080E004C02091F70522FD1D
:100C5000F7CF08952091F70522FD3BC03091F805AC
:100C600030FDE3CF24FFF5CFEDCF2091F70523FF33
:100C7000F0CF24FDE7CFD2CF2091F70523FD2CC084
:100C80003091F80531FFEECF84EE90E00895209189
:100C9000F70525FFDECF89E290E008952091F70562
:100CA00025FFD7CF85E390E008952091F70526FF33
:100CB000D0CF8AE290E008952091F70526FFC9CFB2
:100CC00081E390E0089589E390E0089583EE90E059
:100CD000089582EE90E0089586EE90E00895909158
:100CE000F70592FF06C0282F28712830F9F4877F76
:100CF000846093FF06C0282F28712831F1F4877E85
:100D000084612091F80520FF06C0382F38713830F3
:100D1000D9F4877F816021FF06C0282F28712831F0
:100D2000D1F4877E816194FD877E0895282F2471F8
:100D30002430F9F68B7F8860DCCF282F2471243192
:100D400001F78B7E8861DDCF382F3171313019F793
:100D50008E7F8860E0CF282F2171213121F78E7E90
:100D60008861E1CF08950C94B20608950C94B506FD
:100D7000E82FF0E0EE0FFF1FE752FA4F80819181DC
:100D80000895089580EA8A95F1F7089500C00895BE
:100D90000C94C206F894E82FE295EF70F0E031A1D0
:100DA000282F2F7081E090E001C0880F2A95EAF784
:100DB000982F9095932391A392A1892B82A3789445
:100DC0000895CF93DF93C4E5D1E089910E94CA06CC
:100DD00081E0CE35D807C9F7CAE4D1E089910E94F5
:100DE000CA0681E0C435D807C9F7E5ECF5E0A9EDFE
:100DF000B5E0119211921D921D9285E0E93DF80730
:100E0000C1F78AE00E948C07DF91CF910C94D20346
:100E1000AF92BF92CF92DF92EF92FF920F931F9308
:100E2000CF93DF9304E511E0C5ECD5E0C12CD12CC4
:100E3000EE24E394F12CF80181918F01F894E82FCE
:100E4000E295EF70F0E021A18F70A70102C0440F7E
:100E5000551F8A95E2F7CA01922F982B91A392A170
:100E60008095892382A378940E94C606EAE4F1E083
:100E700030E020E0B12CA12C4191A42FA295AF70BD
:100E8000B0E090968C9190E04F7002C09595879558
:100E90004A95E2F780FD3BC0C701022E02C0880FD1
:100EA000991F0A94E2F7A82AB92A2F5F3F4F2A30E8
:100EB000310511F7F801319780810E94CA0659E087
:100EC000C5120E94C80688819981A816B90611F139
:100ED000B982A88281E0D82AC39422968AE0C812F7
:100EE000AACF2D2D4AE069ED75E085EC95E00E94D2
:100EF0008D070E94DC038D2DDF91CF911F910F9103
:100F0000FF90EF90DF90CF90BF90AF90089590E06A
:100F100080E0C9CF80E0DFCF0895FF920F931F9349
:100F2000CF93DF93F82E092F162FD72FC42F22230C
:100F300049F081E080939E010E94AF1F90939D0134
:100F400080939C0180919E018823A1F080919C0157
:100F500090919D010E94C71F079760F0EF2DF02F21
:100F6000A12FBD2F90E080E0D0E08C179D0744F0CA
:100F700010929E01DF91CF911F910F91FF900895E4
:100F8000219131912D933D930196EFCF833081F1E3
:100F900028F4813059F08230D1F00895853009F479
:100FA00049C0B8F1863009F456C008958091070110
:100FB000482F460F5527551F4F3F510524F4680F02
:100FC0006093070108958FEF809307010895809142
:100FD0000601482F460F5527551F4F3F510524F452
:100FE000680F6093060108958FEF809306010895BE
:100FF00080910501482F460F5527551F4F3F51053A
:1010000024F4680F6093050108958FEF8093050124
:10101000089580910401482F460F5527551F4F3FD3
:10102000510524F4680F6093040108958FEF8093B5
:101030000401089580910101482F460F5527551F3F
:101040004F3F510524F4680F6093010108958FEF1D
:1010500080930101089580910001482F460F552784
:10106000551F4F3F510524F4680F60930001089508
:101070008FEF809300010895833011F128F48130BF
:1010800049F0823091F00895853081F120F1863069
:10109000C1F1089580910701681720F4861B8093A1
:1010A00007010895109207010895809106016817BD
:1010B00020F4861B8093060108951092060108957E
:1010C00080910501681720F4861B8093050108951F
:1010D00010920501089580910401681720F4861B81
:1010E00080930401089510920401089580910101F4
:1010F000681720F4861B8093010108951092010166
:10110000089580910001681720F4861B80930001E8
:1011100008951092000108950F931F9341E050E04D
:1011200060E070E08A019B0104C0000F111F221FC4
:10113000331F8A95D2F7C901B8010E942D1B1F9158
:101140000F910C940D18EBEFE80FEF3308F05AC035
:10115000F0E0EB50F74D0C9475280E94691E81E079
:1011600008958091A105807F8093A10581E08093FF
:10117000A00108950E94DF03F2CF9091A105892F6D
:101180008E7F90FF81608093A10580FDE8CF817FF5
:101190008093A105E4CF9091A105892F8D7F91FFC8
:1011A00082608093A10581FFDACF8091A1058160E3
:1011B000EFCF9091A105892F8B7F92FF8460809360
:1011C000A10582FDF2CFCBCF9091A105892F877F1A
:1011D00093FF88608093A10583FDE7CFC0CF0E9475
:1011E0000D189091F705892F97FB87F98058809308
:1011F000F705B5CF80E00E948C08B1CF8953FBCFB3
:101200008D51F9CF80E0089580E008950C94040991
:101210008E518A3030F4E82FF0E0E25AFE4F8081A0
:10122000089580E00895CF93C82F8091A001813068
:10123000B9F0882331F08230A1F11092A00180E052
:101240000DC00E94141D8232D1F78C2F0E94040918
:1012500081111BC08C2F0E94A3088170CF9108952B
:101260000E94141D823289F38C2F0E94060981117D
:101270000AC0C43199F060F4CB3029F0C03169F76D
:1012800082E08093A00181E0E8CF81E090E0E5CFAB
:10129000C93221F0C833B9F380E0DFCF1092A0014A
:1012A000FBCFC93219F188F4C43101F120F4C73001
:1012B00081F181E0D3CF82EE8C0F8630D0F78C2F76
:1012C0000E94080980939F01F4CFCE3401F140F4CD
:1012D0006AE0CB3471F780919F010E94C607E9CF85
:1012E000C13579F061E0C235B1F3E3CF80919F0160
:1012F000882319F010929F01DCCF81E08093A00138
:10130000ADCF61E080919F010E943C08D2CF6AE09E
:10131000F9CF8EE18093070182E3809306018AE092
:101320008093050184E18093040188E080930101AA
:1013300088E280930001BDCF8091A70180FF12C099
:101340006091050185E0689FB0011124759567954E
:101350007595679560387105A8F561157105A1F15E
:10136000862F089581FF09C06091050185E0689F7F
:10137000B001112475956795EDCF6091050182FD4F
:101380000AC08091A6018823D1F090910401609158
:101390000501891728F085E0689FB0011124DACF94
:1013A000869FB001112485E0869F9001879F300DB4
:1013B0001124692F70E0C9010E946128CBCF65E03C
:1013C00070E0CECF8FE7089581E008958091A70166
:1013D00080FF0CC06091010170E07595679575956F
:1013E00067956115710549F1862F089581FF06C043
:1013F0006091010170E075956795F3CF60910101EF
:1014000082FD0BC09091A5019923A1F0609100018C
:1014100080910101961738F0682F70E060387105EF
:1014200000F38FE70895899FC001112470E00E94A6
:101430006128F4CF61E070E0D7CF81E008958D3E60
:1014400031F40E949C0981958093AB0108958E3EF2
:1014500019F40E949C09F8CF8F3E31F40E949C0938
:1014600081958093AA010895803F19F40E949C09F8
:10147000F8CF893F29F40E94E6098093AC010895D2
:101480008A3F21F40E94E6098195F7CF8B3F31F422
:101490000E94E60981958093AD0108958C3F19F46F
:1014A0000E94E609F8CF9FE0980F983070F4815FB2
:1014B000990B21E030E001C0220F8A95EAF7809174
:1014C000A901822B8093A90108958D3F31F4809169
:1014D000A70181608093A70108958E3F21F4809138
:1014E000A7018260F7CF8F3FB9F78091A701846091
:1014F000F1CF4091AA018D3E59F48091AB0187FF55
:101500000DC01092AB0141110BC01092A60108C092
:101510008E3E81F48091AB0118169CF3442381F038
:101520008091AC019091AD01892B09F05AC01092C5
:10153000A50108958F3E49F447FFF0CF1092AA010C
:101540008091AB018111ECCFE0CF803F19F41416EC
:10155000ACF3E4CF9091AC01893F29F41916F4F66D
:101560001092AC01DBCF8A3F19F497FFD7CFF8CFA9
:101570009091AD018B3F29F497FFD0CF1092AD0130
:10158000CDCF8C3F19F41916CCF3C8CF9FE0980F3C
:10159000983090F4815F990B21E030E0B90102C0EE
:1015A000660F771F8A95E2F7CB0180959091A9018C
:1015B00089238093A901B2CF8D3F31F48091A70197
:1015C0008E7F8093A701AACF8E3F21F48091A7013F
:1015D0008D7FF7CF8F3F09F0A1CF8091A7018B7F3F
:1015E000F0CF08950E94AF1F9C019091AA018091B5
:1015F000AB01982B21F03093A4012093A30190918B
:10160000AC018091AD01982B21F03093A201209381
:10161000A10188EA91E00C949313EF92FF920F934B
:101620001F93CF93DF9300D000D000D0CDB7DEB7AB
:1016300086E0E8EAF1E0DE01119601900D928A95CC
:10164000E1F7E090AA01F090AB010091AC0110919C
:10165000AD011092AA011092AB011092AC01109250
:10166000AD018E2D8F2991F08091A3019091A4015D
:101670000E94C71FAC019091A601992309F43FC0B5
:10168000809106018417150608F447C0802F812B2E
:1016900091F08091A1019091A2010E94C71FAC011D
:1016A0009091A501992309F477C0809102018417D4
:1016B000150608F47FC08091AA019091AB01892B97
:1016C0009091AC01892B9091AD01892B11F00E9472
:1016D000F20A86E0FE013196A8EAB1E001900D928F
:1016E0008A95E1F726960FB6F894DEBF0FBECDBF00
:1016F000DF91CF911F910F91FF90EF90089520916E
:1017000007018AE0289F900111242417350708F06B
:10171000BDCF9F5F9093A60102C09F3FD1F7EE20FF
:1017200059F00E949C099FEF1E140CF491E0899FD0
:10173000802D11248093AA01FF2059F00E949C095A
:101740009FEF1F140CF491E0899F802D112480934A
:10175000AB013091AA01332309F498CF2091AB015A
:10176000222309F493CF45EB3403C00111249923BC
:1017700059F09093AA0145EB2403900111243323DF
:1017800039F03093AB0182CF81E08093AA01F3CF8F
:1017900081E08093AB017ACF209103018AE0289FFA
:1017A000900111242417350708F085CF9F5F90938F
:1017B000A50102C09F3FD1F7002359F00E94E6091E
:1017C0009FEF10160CF491E0899F802D11248093D7
:1017D000AC01112359F00E94E6099FEF11160CF499
:1017E00091E0899F802D11248093AD013091AC014F
:1017F000332309F460CF2091AD01222309F45BCF9C
:1018000045EB3403C0011124992359F09093AC01A6
:1018100045EB240390011124332339F03093AD01BB
:101820004ACF81E08093AC01F3CF81E08093AD019A
:1018300042CF86E0E8EAF1E0DF011D928A95E9F700
:101840001092A6011092A5011092A7010895CF93BE
:10185000DF93EC0197FF0CC0FB018281882341F0EC
:101860000E94620CCE019F770E94BC0C0E949D0CCE
:1018700081E0DF91CF9108958CE090E00E94B12843
:10188000482F50E070E060E04093ED055093EE0586
:101890006093EF057093F0051092AE01843009F467
:1018A000089584E08093ED0508956091ED058CE046
:1018B00090E00C94BF281092AE0184E08093ED0577
:1018C0000C94550C0E946C13869581708093F205E0
:1018D0009091ED05913029F4882319F089E30E9455
:1018E0008B150E94141D8093F1050E94271D809185
:1018F000ED05813089F0882359F0823091F08430F1
:10190000B9F08FE39CE90197F1F700C0000008955A
:1019100082EE0E94F214F5CF88E193E00E947C03EE
:10192000F0CF82EE0E94F21487E50E948B15E9CF7A
:1019300086EE0E948B1588E1F8CF8091ED0581300D
:1019400071F0882341F0823031F0843099F0809139
:10195000F1050C94241D82EE0E944515F8CF8CE20F
:101960000E948B158091F205882389F389E30E94F8
:101970008B15EDCF88E2FBCF0F931F93CF93DF93AF
:101980008C01CCE0D0E0C8010C2E02C09695879562
:101990000A94E2F78F700E94B1042497CC3F8FEF36
:1019A000D80789F7DF91CF911F910F9108950F9379
:1019B0001F93CF93DF93EC018B01FB01828188237E
:1019C00061F00E94141D8272C23EFCE5DF07E1F067
:1019D00060F4C13EECE5DE0799F0B801CE01DF917D
:1019E000CF911F910F910C94270CC83EFCE5DF07A7
:1019F000A0F78C2F835E8093ED050E94550CEDCFF0
:101A0000811104C081E003C08111FCCF8FEF0E94DF
:101A10005B0CE3CF0F931F93CF93DF93C42FD22F91
:101A2000FC0182818823C9F04093B1010E94AF1F5D
:101A30009093B0018093AF0180E28C0F883008F062
:101A400050C0C77081E001C0880FCA95EAF7DF91E6
:101A5000CF911F910F910C9493151091B101141314
:101A600035C08091AF019091B0010E94C71F883CA2
:101A7000910560F5C0E2CD0F1D17B9F080E2810F2E
:101A8000883040F4177081E001C0880F1A95EAF79A
:101A90000E949A15C83048F481E09D2F977001C0CC
:101AA000880F9A95EAF70E949315802F0E948B1554
:101AB000C830B8F4D77081E001C0880FDA95EAF732
:101AC000DF91CF911F910F910C949A1580E28C0FAA
:101AD000883038F4C77081E001C0880FCA95EAF7F2
:101AE000EFCFDF91CF911F910F9108950F939C013C
:101AF000CB01253F4CE5340759F1A8F4293DFCE51D
:101B00003F0701F12A3D4CE53407D1F1283D3C4522
:101B100091F406E221EE41EE68ED7CE50E940A0DAB
:101B200080E00F910895273FFCE53F07E9F0B0F012
:101B3000283F3C45F9F0FC018281882339F110925D
:101B4000B101EFCF07E225EE45EE69ED7CE5E6CF8A
:101B500006E221EE40EE65EF7CE5E0CF07E225EE00
:101B600044EE66EF7CE5DACF06E221EE42EE67EF67
:101B70007CE5D4CF07E225EE46EE68EF7CE5CECFDC
:101B800008E221E045EE6AED7CE5C8CF81E0C9CFEF
:101B9000CF93DF93EC01FB018281882309F419C103
:101BA000C230FCE5DF07C0F1C6319CE5D90730F053
:101BB0009E012C5F3C452930310570F50E94D81DEF
:101BC0009093F8058093F705C031ECE5DE0709F442
:101BD000CFC008F05BC0C8308CE5D80709F4B6C0A8
:101BE00088F5C430ECE5DE0709F4A8C0C0F4C230C3
:101BF0008CE5D80709F49CC08091F7058260C3305A
:101C0000DC4509F498C08091F7059091F8050E9491
:101C1000E61D0E940D1880E0DF91CF91089580911C
:101C2000F7058061C630ECE5DE0709F484C08091D9
:101C3000F7058860C730DC4508F47DC08091F70562
:101C4000806279C0CC308CE5D80709F489C070F483
:101C50008091F7058C60CA30ECE5DE0709F46BC0B3
:101C600008F478C08091F7058E7F65C0CE308CE592
:101C7000D80709F479C08091F7058B7FCF30DC4518
:101C800008F459C08091F7058F7E55C0CD3FECE533
:101C9000DE0709F457C030F5C3318CE5D80709F4E5
:101CA0006FC078F4C131ECE5DE0709F465C0C231DC
:101CB000DC4509F0A8CF0E940D188091F7058F77B9
:101CC0003AC0C5318CE5D80709F462C008F476C083
:101CD0008091F8058160CC3FDC4509F094CF80937A
:101CE000F80591CFC130FDE5DF0709F44DC088F458
:101CF0008091F8058D7FCF3F9CE5D90781F38091D6
:101D0000F8058E7FC115DD4550F38091F80583609D
:101D1000E6CFC330FDE5DF0709F459C008F444C03D
:101D200080E0C430DD4509F06ECF0E946B1E6BCFA2
:101D30008091F70581608093F70565CF8091F70565
:101D40008460F9CF8091F8058260C9CF8091F70552
:101D50008064F1CF0E940D188091F7058068EBCF69
:101D60008091F7058D7FE7CF8091F705877FE3CFDF
:101D70008091F7058F7DDFCF8091F7058F7BDBCFDB
:101D80008091F705837FD7CF8091F8058C7FA7CF0F
:101D90008091F70582FB992790F921E0922790FB2B
:101DA00082F990FB83F9C7CF8091F805982F909521
:101DB00091708E7F892B90FB81F991CF0E940D1835
:101DC0009091F705892F97FB87F98058B4CF81E070
:101DD000ACCF81E021CFCF93DF93EB0186319C45DF
:101DE00011F50E94141D9A81992399F08A7A91E045
:101DF00009F490E09093B201811109C089E20E9438
:101E0000EF1C0E94561D80E0DF91CF91089585E37D
:101E1000F6CF8091B201811104C089E20E94F61CC4
:101E2000F0CF85E3FBCF81E0EFCF089508950895CB
:101E300008950F931F93CF93DF93EC018B010E94C2
:101E4000150F0E940D180E94751B19830883DF91DE
:101E5000CF911F910F9108958F929F92AF92BF9251
:101E6000CF92DF92EF92FF921F93CF93DF93EC011B
:101E70007B01142F8090740590907505A0907605D5
:101E8000B09077050E940D180E94751B86E018021D
:101E900060011124CE15DF05C1F40E940D18809257
:101EA000740590927505A0927605B0927705812F02
:101EB000DF91CF911F91FF90EF90DF90CF90BF9077
:101EC000AF909F908F900C94160FCE010E94C11777
:101ED000CC0DDD1DDFCF0F931F93CF93DF93EB016D
:101EE000F801A881B9813281311103C08A179B079B
:101EF000A9F086E02802B0011124CD01861B970BC2
:101F00004817590781F086E001900D928A95E1F714
:101F100088819981860F971F99838883DF91CF915C
:101F20001F910F910895BF01822FDF91CF911F91D3
:101F30000F910C94170FCF92DF92EF92FF921F93A5
:101F4000CF93DF936C01EB01142F7901842F0E9452
:101F5000180F8AEF1802A0011124CC15DD0531F00D
:101F6000FE01E40FF51F828181110BC0F701D183BF
:101F7000C083DF91CF911F91FF90EF90DF90CF90C2
:101F80000895EF01EACF0F931F93CF938B01209118
:101F9000B50421113DC0FB01C281C11122C08630B0
:101FA000FDE59F0719F128F485309D4589F0C1E0D2
:101FB00018C08830EDE59E0709F189309D45B9F7D5
:101FC00060910801709109014FEF8DEA94E01DC006
:101FD00063EB71E083EB94E00E94190F81E0809342
:101FE000B5048C2FCF911F910F9108956DEA74E085
:101FF00083EB94E00E94190F82E0F1CF60910A0117
:1020000070910B0141E083EB91E00E942C0FE9CF2E
:10201000AC0145505D454330510538F531E087301E
:102020009D4509F430E0F8018281831731F02130B9
:1020300031F0223081F01092B504C0E0D2CF60912F
:10204000B3047091B4042AE031E041E083EB91E005
:102050000E949B0FF0CF6091B3047091B40428E00C
:1020600031E04FEF8DEA94E0F3CF213069F0223078
:1020700009F09DCF40910A0150910B012FEF63EBC6
:1020800074E08DEA94E009C0409108015091090183
:1020900021E063EB74E083EB91E00E946B0F87CF4C
:1020A0004F925F926F927F928F929F92AF92BF9268
:1020B000CF92DF92EF92FF920F931F93CF93DF9314
:1020C000EC01E881F981CF01815095458F3F910561
:1020D00010F485E5F827DB0112964C90442009F4B2
:1020E00066C2EF3FF10509F100F1EF3DFC4521F03B
:1020F0001092B604A42D07C08091B60491E0892700
:102100008093B604A0E08A2FDF91CF911F910F91A9
:10211000FF90EF90DF90CF90BF90AF909F908F9007
:102120007F906F905F904F900895A091B604AA237E
:1021300009F4E9C01092B604E03CF105F0F5E0388E
:10214000F10508F0AAC0E034F10508F070C021E004
:1021500030E040E050E060E070E080E090E00E2F82
:102160000E947B28B091B7042B2BB091B8043B2B75
:10217000B091B9044B2BB091BA045B2BB091BB0466
:102180006B2BB091BC047B2BB091BD048B2BB09119
:10219000BE049B2B2093B7043093B8044093B9043A
:1021A0005093BA046093BB047093BC048093BD0445
:1021B0009093BE04F983E883A6CFEF3FF10509F0C1
:1021C00030F621E030E040E050E060E070E080E098
:1021D00090E08F01005C11090E947B28B091CF0430
:1021E0002B2BB091D0043B2BB091D1044B2BB09151
:1021F000D2045B2BB091D3046B2BB091D4047B2B16
:10220000B091D5048B2BB091D6049B2B2093CF0497
:102210003093D0044093D1045093D2046093D304FC
:102220007093D4048093D5049093D604C3CF21E057
:1022300030E040E050E060E070E080E090E08F014E
:10224000005411090E947B28B091BF042B2BB09140
:10225000C0043B2BB091C1044B2BB091C2045B2B4B
:10226000B091C3046B2BB091C4047B2BB091C50417
:102270008B2BB091C6049B2B2093BF043093C004DA
:102280004093C1045093C2046093C3047093C40488
:102290008093C5049093C6048DCF21E030E040E0E8
:1022A00050E060E070E080E090E08F01005811099C
:1022B0000E947B28B091C7042B2BB091C8043B2B04
:1022C000B091C9044B2BB091CA045B2BB091CB04E5
:1022D0006B2BB091CC047B2BB091CD048B2BB091A8
:1022E000CE049B2B2093C7043093C8044093C904A9
:1022F0005093CA046093CB047093CC048093CD04B4
:102300009093CE0457CFE034F10508F067C0709089
:10231000B7048090B8049090B904D091BA04C091E9
:10232000BB04B091BC045090BD046090BE0421E099
:1023300030E040E050E060E070E080E090E00E2FA0
:102340000E947B2859016A017B018C0127213B2DCA
:10235000382149215D2D5D236C237F2D7B23852131
:10236000912F96210E94942809F0C4CEE03CF105FB
:1023700008F08EC0E038F10508F0EBC0E034F1055C
:1023800008F0B9C021E030E040E050E060E070E0EB
:1023900080E090E00E2F0E947B282095309540959C
:1023A0005095609570958095909527213821492109
:1023B0005D236C237B23852196212093B7043093E2
:1023C000B8044093B9045093BA046093BB0470936B
:1023D000BC048093BD049093BE0495CEE038F10513
:1023E000E0F47090BF048090C0049090C104D0913C
:1023F000C204C091C304B091C4045090C50460905D
:10240000C60421E030E040E050E060E070E080E0B1
:1024100090E08F010054110993CFE03CF105E0F406
:102420007090C7048090C8049090C904D091CA04E9
:10243000C091CB04B091CC045090CD046090CE04F8
:1024400021E030E040E050E060E070E080E090E0CB
:102450008F010058110974CF7090CF048090D00480
:102460009090D104D091D204C091D304B091D404FF
:102470005090D5046090D60421E030E040E050E078
:1024800060E070E080E090E08F01005C110958CFBF
:10249000EF3FF10511F008F075CF8F01005C1109D5
:1024A00021E030E040E050E060E070E080E090E06B
:1024B0000E947B28209530954095509560957095A9
:1024C000809590952721382149215D236C237B231A
:1024D000852196212093CF043093D0044093D104DA
:1024E0005093D2046093D3047093D4048093D504A2
:1024F0009093D60408CE8F010054110921E030E0FA
:1025000040E050E060E070E080E090E00E947B28D6
:102510002095309540955095609570958095909553
:102520002721382149215D236C237B238521962196
:102530002093BF043093C0044093C1045093C2045D
:102540006093C3047093C4048093C5049093C6043D
:10255000DACD8F010058110921E030E040E050E071
:1025600060E070E080E090E00E947B28209530954C
:1025700040955095609570958095909527213821CC
:1025800049215D236C237B23852196212093C70459
:102590003093C8044093C9045093CA046093CB0499
:1025A0007093CC048093CD049093CE04ACCDA1E085
:1025B000EF3FF10509F098F5E034F10590F58090D2
:1025C000B7049090B804D091B904C091BA04B09106
:1025D000BB04A091BC046090BD047090BE0421E0D7
:1025E00030E040E050E060E070E080E090E00E2FEE
:1025F0000E947B2859016A017B018C0128213B2D17
:1026000039214D235D2D5C236B237F2D7A23A1E09F
:102610008621912F97210E94942809F4A0E0A170AF
:1026200072CDE038F105E0F48090BF049090C004D2
:10263000D091C104C091C204B091C304A091C4045C
:102640006090C5047090C6048F010054110921E008
:1026500030E040E050E060E070E080E090E0C8CF23
:10266000E03CF105A0F48090C7049090C804D0919C
:10267000C904C091CA04B091CB04A091CC0460906D
:10268000CD047090CE048F0100581109E0CF8090E6
:10269000CF049090D004D091D104C091D204B091D5
:1026A000D304A091D4046090D5047090D6048F0117
:1026B000005C1109CCCF9093DC048093DB04089577
:1026C000E091DB04F091DC04309721F00190F0817F
:1026D000E02D099480E00895E091DB04F091DC04A2
:1026E000309711F480E008950190F081E02D099574
:1026F0000895E091DB04F091DC04309799F020918B
:102700001801222359F02091F70527FF07C0DC01AB
:102710002C9111962C93119725E02C930280F38134
:10272000E02D09940895E091DB04F091DC043097EA
:1027300039F022E0DC012C930480F581E02D09942E
:1027400008952091D9043091DA042817390771F0DF
:102750009093DA048093D904E091DB04F091DC04D7
:10276000309721F00680F781E02D0994089520919B
:10277000D7043091D8042817390771F09093D80402
:102780008093D704E091DB04F091DC04309721F0D2
:102790000084F185E02D099408950E94BB1F609389
:1027A000F6047093F7048093F8049093F90460930F
:1027B000F2047093F3048093F4049093F504089565
:1027C00085B7806885BF85B7806885BF08950895FF
:1027D00008950C94E7130C941A030E94E01389EBFC
:1027E0009DE10E942C200E94E8130C94E91381E0E3
:1027F00008950C94F713089508950E94A61F0E944F
:10280000E1060E947C200C94EB138F929F92AF9272
:10281000BF92CF92DF92EF92FF920F931F93CF93CD
:10282000DF93CDB7DEB72A970FB6F894DEBF0FBEA1
:10283000CDBF0E94FB130E94FC130E940807811168
:102840000E94CD135EED852E54E0952E10E000E041
:10285000A02E802F0E94B8066C01F401E190F19047
:102860004F01E816F90609F45CC08091A10581FDCD
:102870000E94C106C7018C259D25B12CEE24E3944E
:10288000F12C9C012E213F21232B09F444C00E94EE
:10289000F9138823A9F0BE82AF82CE20DF2081E029
:1028A000CD2809F480E088870E94AF1F8160782FCF
:1028B0009A8789874E815F8168858A850E94BB14CB
:1028C000000F111FF801E252FB4F80819181E82631
:1028D000F926F182E0820E940D0B0E946013909114
:1028E000DD048917A9F10E9460138093DD042A9604
:1028F0000FB6F894DEBF0FBECDBFDF91CF911F9111
:102900000F91FF90EF90DF90CF90BF90AF909F908E
:102910008F900C94C204B394EE0CFF1CFAE0BF122B
:10292000B0CF0F5F1F4F0A30110509F091CF8FEF25
:1029300089838A831B820E94AF1F8160782F9D83C9
:102940008C8349815A816B818D810E94BB14C3CFD6
:102950002A960FB6F894DEBF0FBECDBFDF91CF91A0
:102960001F910F91FF90EF90DF90CF90BF90AF90AD
:102970009F908F900895DF92EF92FF920F931F9395
:10298000CF93DF93CDB7DEB72B970FB6F894DEBFAA
:102990000FBECDBF7A878B87F42E052F162FE72E1B
:1029A000D82E61110E94371D1E821D827E2DEC8261
:1029B000DD824F2D502F612F8D2D9E812B960FB6CE
:1029C000F894DEBF0FBECDBFDF91CF911F910F9165
:1029D000FF90EF90DF900C94831AFC01808191812D
:1029E0000C94C11CCF93C82F882309F44CC08CEFE2
:1029F0008C0F813AC8F48C2F0E941309811143C0B7
:102A00006C2F80910C0190910D010E94841E8823EF
:102A100029F08C2F0E94F61C0E94561D8C2F0E94BC
:102A2000EF1CCF910C94561D80E28C0F883048F437
:102A3000C77081E001C0880FCA95EAF70E94171D90
:102A4000F0CFEBE5EC0FE33040F4F0E0EA56FE4F58
:102A5000808190E0CF910C94A113E8E5EC0FE73171
:102A600050F4F0E0EE0FFF1FE859FE4F8081918196
:102A7000CF910C94B713CD3E30F08C2F0E941F0ADB
:102A8000CF910C94F20ACF910895882361F19CEFC5
:102A9000980F913A20F40E94F61C0C94561D90E277
:102AA000980F983050F4877091E001C0990F8A9583
:102AB000EAF7892F0E941D1DF0CF9BE5980F9330F8
:102AC00020F490E080E00C94A11398E5980F9731E2
:102AD00020F490E080E00C94B7138D3E20F00E942B
:102AE000790A0C94F20A08951F93CF93DF93182F5D
:102AF000EB010E94F214209731F4812FDF91CF91E6
:102B00001F910C9445158FE99FE00197F1F700C0E4
:102B100000002197F0CF70E060E0893311F460E5A8
:102B200070E00C947415882321F00E94171D0C94FA
:102B3000561D0895882321F00E941D1D0C94561DDA
:102B40000895BF92CF92DF92EF92FF920F931F935F
:102B5000CF93DF936C01D62FC72FFC011281058123
:102B600002950F700E940D1DE82E8823A1F0E12E22
:102B7000112389F08C2F807F803429F080E28D0F23
:102B8000E12C883040F082E00E94A11D0E940D1DC2
:102B900091E0E82EE926BC2EB2949FE0B922FBE03A
:102BA000FB1598F1EB2DF0E0EC5CF64D0C947528DC
:102BB0000C2F0F70C07F11F00295007F1123A9F038
:102BC000002359F080E28D0F883010F0D11109C038
:102BD000802F0E94171D0E94561D8D2F0E94F214F7
:102BE00014C0802F0E942A1DF6CF8D2F0E944515FC
:102BF000002359F080E28D0F883010F0D1112CC0E5
:102C0000802F0E941D1D0E94561D2B2D2850330B16
:102C10002430310520F40E9460130E94C204EE208B
:102C200009F48EC10E94091D80FD8AC1F60112823D
:102C30000E94031D0E948F1BC6010E94C1170E94A3
:102C4000031DDF91CF911F910F91FF90EF90DF90C7
:102C5000CF90BF900C94B01B802F0E94301DD3CF1B
:102C60002C2F2F70F22EC07FC03219F0F29480EF1B
:102C7000F822DD2369F0D13049F1112391F10023CD
:102C800051F1F601858180FFA8CF8F70858323C025
:102C9000112381F0011106C00E943D1D8F290E9461
:102CA0009315B3CF0130C1F70E943D1D8F290E94BB
:102CB000431DABCF011106C00E944C1D8F2D0E94F9
:102CC0009A15A3CF013009F4A0CFF6CF112329F034
:102CD000063008F09ACF8F2DE2CF053008F095CF5F
:102CE000EDCF002359F3D93349F4FFEF27EE33E05A
:102CF000F15020403040E1F700C000008D2F0E94CD
:102D0000451583CF8C2F86958695837069F0813029
:102D100009F07BCF8D2F9C2F9370111102C090E092
:102D200080E00E94B71371CF8D2F9C2F93701111EB
:102D300002C090E080E00E94A11367CF8D2F112385
:102D400029F00E941F0A0E94F20A5FCF0E94790AAE
:102D5000FACF8C2F837009F041C0111156CF4D2F3F
:102D6000429546954770440F440F0D2F0F7010E0A9
:102D700030E020E0042E04C0000F111F221F331F7B
:102D80000A94D2F760E070E0CB01D4FF0FC06FE08F
:102D900070E080E090E004C0660F771F881F991FE5
:102DA0004A95D2F76095709580959095C695C69591
:102DB000C370602B712B822B932BC23049F058F4D7
:102DC000C13019F00E94411B20CF0E942F1B1DCF44
:102DD0000E94531B1ACF0E942D1B17CF86951123DB
:102DE00011F08C2F8170882309F40FCF4D2F42955D
:102DF00046954770440F440F0D2F0F7010E030E0E0
:102E000020E0042E04C0000F111F221F331F0A945C
:102E1000D2F760E070E0CB01D4FF0FC06FE070E04C
:102E200080E090E004C0660F771F881F991F4A95C5
:102E3000D2F76095709580959095C695C695C370AC
:102E4000602B712B822B932BC23049F058F4C13088
:102E500019F00E94061CD9CE0E94F41BD6CE0E9407
:102E6000181CD3CE0E94691BD0CECF70112329F03D
:102E70008C2F0E948F1B8D2F12CF8D2F0E949A15A1
:102E80008C2F0E94B01BC1CED23F89F160F4D03F9D
:102E9000C9F0D13F29F1112309F442C001119DCE9F
:102EA0008C2F8F7121C0D33F39F1D43FA1F711236B
:102EB00069F1CF718C2F0E948F1B63E08C2F0E94D1
:102EC0008C1DA3CE112341F0053008F09ECE8C2F2F
:102ED0008F710E94D31B99CE063008F096CEF7CFA3
:102EE0008C2F8F71112369F20E948F1B8ECE8C2F35
:102EF0008F711123C9F3C5CF112329F08C2F8F7146
:102F00000E947A1B82CE0E94751B7FCE81E00E94B8
:102F1000A11D023008F479CE82E00E94A11D75CE79
:102F2000002359F0D93309F0E9CE8FEF97EEE3E0B3
:102F300081509040E040E1F7DFCE8C2F8F71A1CF20
:102F4000DF91CF911F910F91FF90EF90DF90CF9085
:102F5000BF9008950F931F93CF93DF93EC01688187
:102F600079818A810E94CB1C8C010E942A1C0E94BC
:102F70002C1BB801CE01DF91CF911F910F910C94C2
:102F8000A115CF93DF93EC018B819C81892B29F0D4
:102F90008881998189238F3F59F4DF91CF910895DA
:102FA000CE010E94AA17CE01DF91CF910C94C703E6
:102FB000CE010E94EE038111F3CF0E940D1D8823E4
:102FC00061F38A81882349F382E0DF91CF910C94E9
:102FD000A11D882321F00E942A1D0C94561D0895DE
:102FE000882321F00E94301D0C94561D089590E016
:102FF00080E00E94A11390E080E00E94B7130E943D
:10300000371D0E943A1D0E94561D0E94190C0C94F7
:10301000F20A0E94FD1C0C94F7170E94271D0C94C5
:103020000918E92FE295EF70E250EE3070F4F0E00D
:10303000E05CF64D0C947528803F19F020F4883E32
:1030400020F481E00895843FE1F380E00895883E14
:10305000C0F3813FD1F7F5CF93FB882780F908951E
:103060000E94C11C0C941118CF93DF9300D000D0A4
:103070000F92CDB7DEB70F900F900F900F900F907B
:10308000DF91CF910895CF93DF9300D000D000D08F
:10309000CDB7DEB726960FB6F894DEBF0FBECDBF14
:1030A000DF91CF9108951F93CF93DF93C091FB04DD
:1030B00016E08091FC048C1304C0DF91CF911F9126
:1030C0000895D0E01C9FF0011D9FF00D1124E350E6
:1030D000FB4F4081518162817381848195810E947F
:1030E00043182196C770E5CF40912D0550912E05CC
:1030F00060912F05709130058091310590913205D6
:103100000C9443181F93CF93DF9380913205807FF7
:10311000A9F480912F05882389F08091FB04C09148
:10312000FC0460912D0570912E05A0913005B091A1
:103130003105D62FD72316E0C81304C0DF91CF91F5
:103140001F91089590E0109711F0DF3F19F4019658
:103150008770F2CF189F9001199F300D1124F9014B
:10316000E350FB4F41814713F2CF40814613EFCF2D
:1031700042814111ECCF438154814A1B5B0B483C97
:10318000510528F7809132058F7080618093320558
:10319000F901EE5FFA4F80818F70806180838DE24C
:1031A00095E00E94C117DF91CF911F910C945318A5
:1031B000AF92BF92CF92DF92EF92FF920F931F9345
:1031C000CF93DF93CDB7DEB761970FB6F894DEBF2C
:1031D0000FBECDBF8C0185E0F801DE011D96019088
:1031E0000D928A95E1F7F80140815181E2808DE2EC
:1031F000C82E85E0D82E609130057091310561159B
:10320000710509F461C190912D0520912E05892F3A
:1032100082238F3F09F458C1A380B480F0902F051A
:10322000F501E61BF70BFF2009F4FCC08091320585
:10323000382F307FE83CF10508F0B2C0311179C079
:10324000FE2C251323C0941321C0E1101FC08F70E2
:103250008061809332050E947418C6010E94C117D4
:1032600080913205F80185838F2D61960FB6F89411
:10327000DEBF0FBECDBFDF91CF911F910F91FF90A9
:10328000EF90DF90CF90BF90AF900895AB2829F0DA
:10329000842F85238F3F09F033C180E0F82FF17030
:1032A000DF2E80FF3CC08091FB042091FC0436E0BF
:1032B000821315C04D875E878D859E850E94C11C37
:1032C000292F22952F702230F0F0243018F59F70AE
:1032D000F1F0F8019581907FD1F4D12C1EC090E0DF
:1032E000389FF001399FF00D1124E350FB4F6181AD
:1032F000651306C06081641303C062816E110FC044
:1033000001968770D5CF9F7011F0882331F3805ECE
:10331000883018F3C8010E94C117FD2CA5CFEE20FC
:1033200009F4A2CF80913205816080933205F12C9F
:103330009BCF251306C0941304C0F801EE2009F4B6
:103340008DC04D875E878D859E850E9430188823AD
:1033500019F1EE2009F180913205803270F0209150
:103360002D0530912E0538872F831986BB86AA86B6
:103370008C87CE0107960E94C11786E0F801ADE266
:10338000B5E001900D928A95E1F70E9482180E94A3
:103390007418FF24F39468CFC8010E94C117F9CFB5
:1033A000311113C07A2DB98AA88A6E2D89890E949D
:1033B00034188DE295E00E94C11786E0F601119263
:1033C0008A95E9F70E947418B2CF25130FC09413A1
:1033D0000DC0E1100BC0F8018583C8010E94C11720
:1033E00086E0F60111928A95E9F73ECF4D875E8718
:1033F0008D859E850E943018882371F2EE2061F23F
:1034000080913205803208F4B8CF20912D0530919B
:103410002E053A8329831B82BD82AC828E83CE0126
:103420000196A9CFE83CF10508F041C0FE2CEE2042
:1034300009F4B2CF25132AC0941328C08091320515
:1034400080FD1BC0982F907FC1F0F8018583903FCD
:1034500031F0982F907F905F8F70892B8583C80102
:103460000E94C11786E0F801ADE2B5E001900D922F
:103470008A95E1F70E947418F7CE86E0F801ADE274
:10348000B5E001900D928A95E1F7EECE4D875E870B
:103490008D859E850E94301881116FCF80913205F5
:1034A000816080933205C8010E94C117DDCE7A2D5C
:1034B000B98AA88A6E2D89890E94341886E0F6019F
:1034C00011928A95E9F7D6CFEE2009F465CF4D87A2
:1034D0005E878D859E850E943018F82E882309F41A
:1034E0005BCF86E0F801ADE2B5E001900D928A95E0
:1034F000E1F78DE295E00E94ED140E948218BACFA8
:1035000081E08E25CBCE1F93CF93DF93CDB7DEB76F
:103510002C970FB6F894DEBF0FBECDBF4F835887F0
:1035200069877A878B879C87CE0107960E94D81877
:10353000882369F08A859B85892B39F04F815885CE
:10354000842F85238F3F09F071C016E05FC086E0AD
:10355000FE013796DE01119601900D928A95E1F7F2
:103560008A859B85892B89F38F81988589238F3F55
:1035700061F32091FC0430E0C9010196877099271E
:103580004091FB044817190671F40E940D1810921F
:10359000FC041092FB0486E0EDE2F5E0DF011D92F1
:1035A0008A95E9F7D2CF96E0929FD001939FB00D14
:1035B0001124A350BB4FFE01319601900D929A95B4
:1035C000E1F78093FC040E945318BFCF819FC00194
:1035D000112483509B4F0E94D8188823E9F0E09172
:1035E000FB041E9FF0011124E350FB4F40815181E9
:1035F00062817381848195810E9443188091FB04CC
:1036000090E00196877099278093FB048091FB04DA
:103610009091FC048913DACF2C960FB6F894DEBF94
:103620000FBECDBFDF91CF911F91089569857A8537
:103630008B859C850E94431888CF08950C941D1B90
:103640000E941E1B609378057093790580937A051C
:1036500090937B050C94F71708950C94201B0F93FF
:103660001F93009178051091790520917A0530918A
:103670007B05602B712B822B932B1F910F910C9448
:10368000201B0F931F9300917805109179052091CD
:103690007A0530917B0560237123822393231F9148
:1036A0000F910C94201B0F931F930091780510919C
:1036B000790520917A0530917B0560277127822753
:1036C00093271F910F910C94201B0C941D1B0C949D
:1036D000651B0E94671B609374057093750580934A
:1036E0007605909377050C94F71760E070E0CB01B6
:1036F0000C94691B0F931F9341E050E060E070E071
:103700008A019B0104C0000F111F221F331F8A95DD
:10371000D2F7C901B8011F910F910C94691B0F9347
:103720001F9341E050E060E070E004C0440F551F7B
:10373000661F771F8A95D2F7809174059091750561
:10374000A0917605B09177058A019B01082B192B72
:103750002A2B3B2BC901B8011F910F910C94691BB7
:103760000F931F9341E050E060E070E004C0440F0D
:10377000551F661F771F8A95D2F7CB01BA01609556
:103780007095809590950091740510917505209124
:1037900076053091770560237123822393231F914F
:1037A0000F910C94691B0F931F9341E050E060E070
:1037B00070E004C0440F551F661F771F8A95D2F72B
:1037C0008091740590917505A0917605B09177056B
:1037D0008A019B01082719272A273B27C901B8011D
:1037E0001F910F910C94691B0F931F930091740507
:1037F000109175052091760530917705602B712B1E
:10380000822B932B1F910F910C94691B0F931F9385
:10381000009174051091750520917605309177051A
:1038200060237123822393231F910F910C94691BB2
:103830000F931F93009174051091750520917605E3
:103840003091770560277127822793271F910F9169
:103850000C94691B08952AE0929F800D1124982FE3
:10386000977041E001C0440F9A95EAF786958695D6
:10387000869595E0899FF0011124ED5CFA4F90E068
:1038800080E070E05191DF0111979B01082E02C08A
:10389000369527950A94E2F7217021952527242350
:1038A00025272C9301968530910561F708952AE02C
:1038B000929F800D1124982F9770869586958695F6
:1038C00025E0829FF0011124ED5CFA4F50E040E0CA
:1038D00080E0219130E0092E02C0369527950A94A8
:1038E000E2F721703327042E01C0220F0A94EAF771
:1038F000822B4F5F5F4F4530510559F70895BF92B6
:10390000CF92DF92EF92FF920F931F93CF93DF93AB
:103910008C01C0907405D0907505E0907605F0900C
:1039200077058091780590917905A0917A05B091FD
:103930007B05C82AD92AEA2AFB2ACFE1D0E0BC2E8F
:10394000D701C6010C2E04C0B695A795979587950B
:103950000A94D2F780FD0EC0219788F7B12C8B2DE9
:10396000DF91CF911F910F91FF90EF90DF90CF905B
:10397000BF900895B8018C2F0E94DE04019761F377
:10398000EECFCF93DF93EC010E947F1CBE01DF914D
:10399000CF910C94DE041F93CF93DF93EB019091B2
:1039A000FA04992331F0CB01DF91CF911F910C9450
:1039B000C11C882379F0CB010E947F1C182F682F2F
:1039C000CE010E942B1CBE01812FDF91CF911F9150
:1039D0000C94DE04CB010E94571C182FF4CF682FE3
:1039E00080910C0190910D010C94041F682F80911F
:1039F0000C0190910D010C940F1F80910C0190917E
:103A00000D010C941A1F80917C05859585958595EF
:103A1000089580917C058770089590917C0597703A
:103A200081E009F480E008958091A00508959091C7
:103A3000A005892B8093A005089580959091A005FD
:103A400098239093A00508958093A005089510925F
:103A5000A005089590919F05892B80939F05089557
:103A6000809590919F05982390939F0508951092BB
:103A70009F05089510929E05089580917D050895F3
:103A800008950C94401D90917D05981721F0809326
:103A90007D050C94411D089580917D05882329F0B2
:103AA00010927D0580E00C94411D0895E0910C0179
:103AB000F0910D018091A0058083E0910C01F091BF
:103AC0000D01808190919F05892B8083E0910C01ED
:103AD000F0910D01808190919E05892B80839091BA
:103AE0007D05992381F0E0910C01F0910D01808119
:103AF000892B808380910C0190910D010E94701E92
:103B000081110E944C1D80910C0190910D010C942B
:103B1000791308950C94891D98E0899F90011124D0
:103B2000622B60937C050E948F1B80917C0585959C
:103B3000859585950C948A1D10927C0580E00C94E7
:103B40008A1D90917C058095892380937C05282F80
:103B5000277071F4282F082E000C330B92171306D0
:103B600039F08595859585950E94B01B0C949C1D18
:103B7000089580E0089590E080E00E94B92821E057
:103B80008B3E9E4F09F020E0822F089582E090E066
:103B90000C94B128682F82E090E00C94BF2883E059
:103BA00090E00C94B128682F83E090E00C94BF283B
:103BB000CF9384E090E00E94B128C82F81E290E08A
:103BC0000E94B128982F8C2FCF910895CF93C92FA1
:103BD000682F84E090E00E94BF286C2F81E290E083
:103BE000CF910C94BF28AB01BC018FE090E00C9406
:103BF000D128AB01BC0183E190E00C94D12860E0B6
:103C000070E0CB010C94F91D60E070E0CB010E94E4
:103C1000F31D0C94FF1D6BEE7EEF90E080E00E94A0
:103C2000DD2860E082E090E00E94BF2860E083E051
:103C300090E00E94BF2810927805109279051092AA
:103C40007A0510927B0560E084E090E00E94BF2836
:103C500060E081E290E00E94BF2860E085E090E0B3
:103C60000E94BF2860E086E090E00E94BF286FEFCE
:103C700087E090E00E94BF2840E050E0BA0188E071
:103C800090E00E94D12860E08DE090E00E94BF2883
:103C900040E050E0BA0188E190E00E94D12860E065
:103CA00087E190E00E94BF2840E050E0BA018CE13B
:103CB00090E00E94D12860E080E290E00E94BF285E
:103CC00040E050E0BA0188E190E00E94D1280C94D5
:103CD000041E0C940B1E682F8EE090E00C94BF28FD
:103CE000FC01329680911801882321F08091F7051C
:103CF0009EE187FF96E080E0915008F408952191BD
:103D00002223D1F38F5FF8CF662301F120911801B0
:103D10002223F1F02091F70527FF1AC0462F469580
:103D2000469546954E3190F4677021E030E002C030
:103D3000220F331F6A95E2F7840F911DFC018281E7
:103D400090E02823392381E0232B69F480E0089553
:103D5000FC01329608962191261721F0E817F90701
:103D6000D1F7F4CF81E008959C01FC0132969FEFDA
:103D700080E04191461751F09F3F19F4411101C075
:103D8000982F8F5F8630A9F79F3F09F40895290F78
:103D9000311D97FD3A95F90162830895FC01329631
:103DA00008962191261303C0DF0111971C92E81792
:103DB000F907B9F70895E62FE695E695E695EE3111
:103DC00068F4E80FF92FF11D677021E030E001C0C1
:103DD000220F6A95EAF78281822B82830895E62F6B
:103DE000E695E695E695EE3170F4E80FF92FF11DB2
:103DF000677021E030E001C0220F6A95EAF7209554
:103E0000828128232283089520911801222329F0FA
:103E10002091F70527FD0C94DB1E0C94B41E209115
:103E20001801222329F02091F70527FD0C94EF1E9D
:103E30000C94CE1EFC01329680911801882351F01B
:103E40008091F70587FF06C08EE1DF011D928A95FC
:103E5000E9F7089586E0F9CF089508950C942D1F91
:103E60008091FD05843049F10E942E1F80E00E9460
:103E7000C2041092A20588E190E020E40FB6F89405
:103E8000A895809360000FBE2093600083B7817F68
:103E9000846083BF83B7816083BF7894889583B73C
:103EA0008E7F83BF0FB6F894A895809160008861DB
:103EB00080936000109260000FBE08950895CF9324
:103EC0000E942C1F0E9408070E945E1FC0E08C2FDA
:103ED0000E94B806892B31F4CF5FCA30C1F780E069
:103EE000CF91089581E0FCCF08950C94741F0E9437
:103EF0000D180E9460130E94C2040C94751F1F923B
:103F00001FB61F9211248F939F93AF93BF938091FD
:103F1000A205811113C08091F3059091F405A09141
:103F2000F505B091F6054196A11DB11D8093F305ED
:103F30009093F405A093F505B093F605BF91AF916A
:103F40009F918F911F901FBE1F90189582E084BD96
:103F500093E095BD9AEF97BD80936E0008952FB7BB
:103F6000F8948091F3059091F405A091F505B09136
:103F7000F6052FBF08952FB7F8946091F30570915F
:103F8000F4058091F5059091F6052FBF08959C01E9
:103F90004FB7F8948091F3059091F405A091F50541
:103FA000B091F6054FBF821B930B089578941F9232
:103FB0001FB61F9211248F939F93AF93BF9380914D
:103FC000F3059091F405A091F505B091F6050196E1
:103FD000A11DB11D8093F3059093F405A093F50501
:103FE000B093F605BF91AF919F918F911F901FBE27
:103FF0001F901895F89481E08093E00080E2809310
:10400000D800E9ECF0E010828FE19EE40197F1F72F
:1040100000C000001DBA109268001CBC10BE1FBA80
:1040200010927A0010926E0010926F001092710040
:10403000109272001082ECEBF0E0108214B817B806
:104040001AB81DB810BA108215B818B81BB81EB827
:1040500011BA0C94003F089590939B0180939A01AC
:104060000895AF92BF92CF92DF92EF92FF920F939B
:104070001F93CF93C0E0CC24C394D12CE82EF12C15
:104080008C2F0E94B8065C0110E000E0C601002EF3
:1040900002C0880F991F0A94E2F78A219B21892B7D
:1040A00099F40F5F1F4F0A30110581F7CF5FCA30B7
:1040B00039F780E0CF911F910F91FF90EF90DF9043
:1040C000CF90BF90AF900895602F7C2F80E00E942A
:1040D000CA04E816F90629F781E0ECCFCF93C82F80
:1040E0008CE20E943120882321F08C2FCF910C94F8
:1040F000312080E0CF910895CF930E94BB1D8111A4
:1041000002C00E94691EC5E608C00E9408078FE32E
:104110009CE90197F1F700C00000C150B1F789E2B6
:104120000E946E2081110BC18AE20E946E208111D3
:104130000E94691E85E00E946E2081110E94FA1F74
:104140000E94C61D8093A10587E00E946E208823EF
:1041500071F08BE10E946E20882309F4CDC090910C
:10416000A105892F8D7F91FF82608093A1058091A9
:10417000A1050E94CA1D0E94D81D9093F805809346
:10418000F70580EE0E946E20882341F09091F7059C
:10419000892F8E7F90FF81608093F70589E30E94CD
:1041A0006E20882341F09091F705892F8D7F91FF34
:1041B00082608093F70582EE0E946E20882341F092
:1041C0009091F705892F8B7F92FF84608093F7058C
:1041D00086EE0E946E20882341F09091F705892F8A
:1041E000877F93FF88608093F70583EE0E946E209F
:1041F000882341F09091F705892F8F7E94FF80618D
:104200008093F70585E30E946E20882341F090910A
:10421000F705892F8F7D95FF80628093F70581E3F5
:104220000E946E20882341F09091F705892F8F7BA3
:1042300096FF80648093F70581E10E946E208823B9
:1042400041F09091F705892F97FB87F9805880936B
:10425000F7058091F7059091F8050E94E61D87E229
:104260000E946E20C82F8EE10E946E208111C260D4
:104270008FE10E946E208111C46080E20E946E2056
:104280008111C86081E20E946E208111C06182E2CA
:104290000E946E208111C06283E20E946E20811113
:1042A000C06484E20E946E20882309F442C0C06882
:1042B0008C2F0E94D31D6C2F70E090E080E00E9454
:1042C0002D1B609174057091750580917605909114
:1042D00077050E94671B8FE00E946E20882319F0EB
:1042E00081E00E946B1E85E10E946E20882339F1D7
:1042F00080E0CF910C946B1E8EE00E946E2088238C
:1043000039F09091A105892F8B7F92FF84602DCF8A
:1043100080E10E946E209091A105882329F0892FC9
:10432000877F93FF886021CF892F8E7F90FF8160E8
:104330001CCFC111BDCF0E94CF1D682FBDCFCF9123
:1043400008958091C3050895CF93DF9300D00F9215
:10435000CDB7DEB79091FD05943019F589837B8345
:104360006A8382E08093E9008FEF9091E8008150AA
:1043700095FD06C095ED9A95F1F700008111F5CFF6
:104380008091E80085FF0DC050E040E063E070E000
:10439000CE0101960E94D0238091E8008E77809311
:1043A000E8000F900F900F90DF91CF910895BC011E
:1043B00084E00C94A421BC0183E00C94A4219C0112
:1043C00082E08093E9009FEF8091E800915085FDA5
:1043D00006C085ED8A95F1F700009111F5CF809127
:1043E000E80085FF0CC050E040E066E070E0C901E5
:1043F0000E94D0238091E8008E778093E800089592
:10440000CF93DF93EC01809118018823B1F1809163
:10441000F70587FF32C060E282E08093E9008FEF0A
:104420009091E800815095FD06C095ED9A95F1F7C1
:1044300000008111F5CF8091E80085FF1BC08091BD
:10444000180170E050E040E0811104C050E040E00D
:1044500068E070E0CE010E94D0238091E8008E7762
:104460008093E80080E2FE01A3EAB5E001900D929E
:104470008A95E1F7DF91CF91089568E081E0CDCF93
:104480008091FC05811109C00E9460250E94BD2514
:104490008091E20084608093E20008951092FC0510
:1044A000089508950895089542E061EC81E00E9426
:1044B000DC2442E261EC82E00C94DC248091FF0574
:1044C000833009F45FC030F48130C1F1823009F4E7
:1044D0009BC008958A3009F487C08B3009F46DC001
:1044E000893009F04EC08091FE05813209F049C043
:1044F0008091020690910306029708F042C08091D5
:10450000E800877F8093E8008091E80082FF35C053
:104510009091F3008091F200029729F48091F100CC
:104520008B7F813021F48091F1008093C3058091CD
:10453000E8008B778093E8000C9410258091FE05AD
:10454000813AF9F48091E800877F8093E8008091B8
:10455000020690910306892B61F460E283EA95E0FC
:1045600070E00E941F248091E8008B778093E80020
:10457000089560E090E080E0F3CF8091FD05811127
:10458000C3CF08958091FE05813AD9F78091020644
:1045900090910306892BA9F78091E800877F80938B
:1045A000E8008091E80080FFFCCF809118018093A3
:1045B000F1008091E8008E77BDCF8091FE058132B9
:1045C00001F78091020690910306892BD1F6809124
:1045D000E800877F8093E8000E9410258091000604
:1045E000809318010C940D188091FE05813249F6D4
:1045F0008091E800877F8093E8000E9410258091D9
:1046000001068093C40508958091FE05813A09F062
:10461000B8CF8091E800877F8093E8008091E80020
:1046200080FFFCCF8091C405C2CF84B7877F84BF51
:104630000FB6F894A895809160008861809360001F
:10464000109260000FBE80E890E00FB6F89480935F
:104650006100909361000FBE0E94ED130E946025DF
:104660000E94BD258091E20084608093E2007894EE
:104670000E9446280E94FD138EE091E00E945B1389
:104680008091FD058530A9F00E9405140E94FB135E
:104690000E94FC13F5CF0E94301F8091FB058823F8
:1046A00041F00E945F1F882321F00E94BA230E94DC
:1046B0000D188091FD05853071F30E94771FE4CFBE
:1046C0000C946223292F33272330310519F168F424
:1046D0002130310509F444C02230310509F445C0C8
:1046E00090E080E030E020E025C02132310549F142
:1046F00022323105A9F780E490E027E234E0611529
:104700007105C1F086EB90E021E733E0613071057F
:1047100089F0E6CF99278130910581F0009729F043
:104720000297F1F6ECEEF2E002C0E0E2F3E08491F1
:1047300090E09F01FA01318320830895EEE0F3E0D9
:10474000F6CF89E090E026E333E06115710591F33F
:1047500089E090E02FE433E06130710559F3C0CF78
:1047600082E190E02FE533E0E5CF8BE390E024E2B7
:1047700033E0E0CF80E189BD82E189BD09B400FE6C
:10478000FDCF8091D8008F7D8093D8008091E0008C
:1047900082608093E0008091E00081FDFCCF08956D
:1047A000AF92BF92CF92DF92FF920F931F93CF935E
:1047B000DF936C01EB018A010E942F25F82E8111F5
:1047C00023C00115110539F0F80180819181C81BC2
:1047D000D90BC80ED91EB12CA12C2097A9F080911D
:1047E000E80085FD22C08091E8008E778093E80084
:1047F00001151105A1F0F80180819181A80EB91E63
:10480000B182A08285E0F82E8F2DDF91CF911F918C
:104810000F91FF90DF90CF90BF90AF9008950E94CE
:104820002F258823D1F2F82EEFCFF60181916F0169
:104830008093F1002197FFEFAF1ABF0ACECFFC01A2
:10484000809104069091050686179707A0F06115E0
:10485000710529F49091E8009E779093E80090E02C
:104860006115710551F4911108C08091E80082FF33
:1048700034C080E00895BC01F2CF8091FD0588230B
:10488000C1F18530C1F18091E80083FD30C0809195
:10489000E80082FDEACF8091E80080FFE1CF8091BF
:1048A000F3002091F200382F6115710519F02830BE
:1048B000310558F091E02830310509F090E0209161
:1048C000E8002E772093E800CBCF81918093F10010
:1048D000615071092F5F3F4FE7CF8091FD0588231D
:1048E00041F0853041F08091E80083FFBECF81E048
:1048F000089582E0089583E00895FC018091040604
:104900009091050686179707A0F06115710529F4A7
:104910008091E8008E778093E80090E06115710542
:1049200051F4911108C08091E80082FF35C080E009
:104930000895BC01F2CF8091FD058823C9F185302F
:10494000C9F18091E80083FD31C08091E80082FDCB
:10495000EACF8091E80080FFE1CF8091F3002091C1
:10496000F200382F6115710519F02830310558F023
:1049700091E02830310509F090E08091E8008E77D1
:104980008093E800CBCF84918093F1003196615001
:1049900071092F5F3F4FE6CF8091FD05882341F0DD
:1049A000853041F08091E80083FFBDCF81E008951C
:1049B00082E0089583E00895982F973028F08F7053
:1049C0008093E90081E008959093E900242F762FE9
:1049D00050E0981731F07091EC002091ED0050916B
:1049E000F00021FD02C09F5FE8CF3091EB003E7FD9
:1049F0003093EB003091ED003D7F3093ED0030912E
:104A0000EB0031603093EB007093EC002093ED00ED
:104A10005093F0002091EE0027FDE5CF80E008954F
:104A20008091FE0587FF13C08091E80082FF06C0D9
:104A30008091E8008B778093E80004C08091FD05A9
:104A40008111F2CF08958091FD058823D9F38091DB
:104A5000E80080FFF8CF8091E8008E77ECCF2091BE
:104A6000E4003091E50095E6A9012091EC00822F49
:104A7000817020FF06C08091E80080FF06C080E0C2
:104A800008952091E80022FD1AC08091FD05882339
:104A900089F0853089F08091EB0085FD0FC0209171
:104AA000E4003091E50042175307F9F29150E1F626
:104AB00084E0089582E0089583E0089581E00895F8
:104AC0000E94CE250E94D625E0EEF0E08081816034
:104AD0008083E8EDF0E080818F77808319BCA7EDBB
:104AE000B0E08C918E7F8C9380818F7E808310923A
:104AF000FC0508950F931F93CF93DF930E94CE255B
:104B00000E94D625C8EDD0E088818F778883888180
:104B10008068888388818F7D888319BC1092FD0509
:104B20001092F9051092FB051092FA0500EE10E0C4
:104B3000F80180818B7F808388818160888342E057
:104B400060E080E00E94DC24E1EEF0E080818E7F76
:104B50008083E2EEF0E080818160808380818860E4
:104B60008083F80180818E7F808388818061888343
:104B7000DF91CF911F910F910895E8EDF0E08081D2
:104B80008F7E8083E7EDF0E080818160808384E028
:104B900082BF81E08093FC050C947A25E8EDF0E07B
:104BA00080818E7F80831092E20008951092DA0057
:104BB0001092E10008951F920F920FB60F921124E8
:104BC0002F933F934F935F936F937F938F939F9315
:104BD000AF93BF93EF93FF938091E10082FF0BC0EF
:104BE0008091E20082FF07C08091E1008B7F80937B
:104BF000E1000E9445288091DA0080FF19C0809171
:104C0000D80080FF15C08091DA008E7F8093DA0093
:104C10008091D90080FF96C080E189BD82E189BD85
:104C200009B400FEFDCF81E08093FD050E94402283
:104C30008091E10080FF19C08091E20080FF15C0E3
:104C40008091E2008E7F8093E2008091E20080619B
:104C50008093E2008091D80080628093D80019BCD4
:104C600085E08093FD050E9452228091E10084FF3F
:104C70002BC08091E20084FF27C080E189BD82E1E2
:104C800089BD89B5982F917080FFFBCF8091D800A6
:104C90008F7D8093D8008091E1008F7E8093E1002A
:104CA0008091E2008F7E8093E2008091E20081603B
:104CB0008093E2008091F905882309F449C084E0DB
:104CC0008093FD050E9453228091E10083FF29C05B
:104CD0008091E20083FF25C08091E100877F80936F
:104CE000E10082E08093FD051092F9058091E100DA
:104CF0008E7F8093E1008091E2008E7F8093E200BE
:104D00008091E20080618093E20042E060E080E018
:104D10000E94DC248091F00088608093F0000E9463
:104D20005122FF91EF91BF91AF919F918F917F9110
:104D30006F915F914F913F912F910F900FBE0F9008
:104D40001F90189519BC1092FD050E944E2270CF3D
:104D50008091E30087FD93E09093FD05B3CF1F9210
:104D60000F920FB60F9211242F933F934F935F939F
:104D70006F937F938F939F93AF93BF93CF93DF9363
:104D8000EF93FF93D091E900DF708091EC00C82F82
:104D9000C17080FDC0E81092E9008091F000877F2B
:104DA0008093F00078940E94F3261092E90080919D
:104DB000F00088608093F000CD2BCF70C093E900A5
:104DC000FF91EF91DF91CF91BF91AF919F918F9123
:104DD0007F916F915F914F913F912F910F900FBEF7
:104DE0000F901F9018951F93CF93DF93CDB7DEB729
:104DF000AA970FB6F894DEBF0FBECDBF8EEF95E039
:104E00002091F100FC012193CF01F6E086309F074D
:104E1000B9F70E945E228091E80083FF1EC1809155
:104E2000FE059091FF059A3008F017C1E92FF0E0D8
:104E3000E25BF64D0C947528803899F0823809F0C1
:104E40000CC1809102068F70873008F006C18093F4
:104E5000E9008091EB0085FB882780F91092E9003A
:104E600006C08091FA059091FB05911182609091A6
:104E7000E800977F9093E8008093F1001092F10092
:104E80008091E8008E77E5C0882309F4D3C0823092
:104E900009F0E3C0809100068111D6C0809102061E
:104EA0008F702FEF280F263008F0D7C08093E900CD
:104EB0002091EB0020FFC8C0933031F48091EB00CB
:104EC00080628093EB00C0C09091EB009061909362
:104ED000EB0021E030E001C0220F8A95EAF7209331
:104EE000EA001092EA008091EB008860EACF81111D
:104EF000B4C0109100061F778091E3008078812B69
:104F00008093E3008091E800877F8093E8000E940F
:104F100010258091E80080FFFCCF8091E30080683D
:104F20008093E30082E0111183E08093FD0595C03A
:104F30008058823008F091C080910006909101065F
:104F40008C3D23E09207A1F583E08A838AE289837E
:104F50004FB7F894DE01139620E03EE051E2E32FD4
:104F6000F0E050935700E49120FF03C0E295EF700A
:104F70003F5FEF708E2F90E0EA30C0F0C7968D93C0
:104F80009D932F5F243159F74FBF8091E800877FB1
:104F90008093E8006AE270E0CE0101960E941F242F
:104FA0008091E8008B778093E80057C0C096E7CFE8
:104FB0006091020670910306AE014F5F5F4F0E9441
:104FC0006023BC01892B09F448C09091E800977FC9
:104FD0009093E80089819A810E947D24E1CF8038F6
:104FE000E1F58091E800877F8093E8008091F905E2
:104FF0008093F10045CF811130C09091000692302E
:1050000060F58091E800877F8093E8009093F90530
:105010000E9410258091F905882311F084E005C0D5
:105020008091E30087FDFACF81E08093FD050E9427
:10503000542213C080910006813079F481E09330CE
:1050400009F080E08093FB051092E9008091E80070
:10505000877F8093E8000E9410258091E80083FFFD
:105060000AC08091E800877F8093E8008091EB0080
:1050700080628093EB00AA960FB6F894DEBF0FBE55
:10508000CDBFDF91CF911F9108950895CF93809167
:10509000FD058823A1F0C091E900CF709091EC004C
:1050A000892F817090FD80E8C82B1092E9008091D3
:1050B000E80083FD0E94F326CF70C093E900CF91F2
:1050C000089597FB072E16F4009407D077FD09D0BA
:1050D0000E949D2807FC05D03EF4909581959F4F36
:1050E0000895709561957F4F0895EE0FFF1F05900D
:1050F000F491E02D0994002E083090F0982F872F1E
:10510000762F652F542F432F322F22270850F4CFAC
:10511000220F331F441F551F661F771F881F991FBB
:105120000A95B2F7002D08952A153B054C055D053B
:105130006E057F05800791070895AA1BBB1B51E1EF
:1051400007C0AA1FBB1FA617B70710F0A61BB70BF7
:10515000881F991F5A95A9F780959095BC01CD019C
:105160000895F999FECF92BD81BDF89A992780B52F
:105170000895A8E1B0E042E050E00C94E528262F25
:10518000F999FECF92BD81BDF89A019700B402163D
:1051900039F01FBA20BD0FB6F894FA9AF99A0FBEEB
:1051A00008950396272F0E94C0280E94BF28252F0C
:1051B0000E94C028242F0C94C0280196272F0E94FB
:1051C000C0280C94BF28DC01CB01FC01F999FECF6B
:1051D00006C0F2BDE1BDF89A319600B40D9241507F
:1051E0005040B8F70895F894FFCFBA08B108BD0849
:1051F000AF0802090209AF0802090209D908020929
:10520000E408EF080209020902090209AF080209CD
:105210000209AF080209CB080209020900090009C6
:105220000009000900090009000900090009FA083D
:105230000209BA08AD0802090209020902090209B5
:1052400002090209020902090209FA08020902090F
:10525000AF080209FE08FE08FE08FE08FE08FE0868
:10526000FE08FE08FE08FA08D815D81530163016C4
:1052700082169E1605160516A916351744174417EB
:105280001C181C1825182518271825182518251846
:105290001C181C182C18251825182C181C274427F6
:1052A0002D2844272D28772798272D28EF27FB27FF
:1052B0002808641E140A321EAD04B3017E05A12124
:1052C0000022DF21DB21D72101E200E900EA00B55D
:1052D00000B600B700CD008301CC008A0192019492
:1052E000012102230224022502260227022A02B3F8
:1052F00000B4006F00700081828366919033313278
:10530000F5F6F492933730F1F0343536F797010221
:105310000304050607080900E200E900EA00B500F9
:10532000B600B700CD008301CC008A019201940140
:105330002102230224022502260227022A02B300A8
:0A534000B4006F007000818283004A
:00000001FF
